{
  "contractName": "Tracer",
  "abi": [
    {
      "anonymous": false,
      "inputs": [
        {
          "indexed": true,
          "name": "serial",
          "type": "bytes32"
        },
        {
          "indexed": false,
          "name": "date",
          "type": "string"
        },
        {
          "indexed": false,
          "name": "temperature",
          "type": "string"
        }
      ],
      "name": "MetaLogged",
      "type": "event"
    },
    {
      "constant": false,
      "inputs": [
        {
          "name": "_serial",
          "type": "bytes32"
        },
        {
          "name": "_date",
          "type": "string"
        },
        {
          "name": "_temp",
          "type": "string"
        }
      ],
      "name": "TagMeta",
      "outputs": [],
      "payable": false,
      "stateMutability": "nonpayable",
      "type": "function"
    }
  ],
  "bytecode": "0x6060604052341561000f57600080fd5b6102328061001e6000396000f300606060405260043610610041576000357c0100000000000000000000000000000000000000000000000000000000900463ffffffff16806377928cc814610046575b600080fd5b341561005157600080fd5b6100f160048080356000191690602001909190803590602001908201803590602001908080601f0160208091040260200160405190810160405280939291908181526020018383808284378201915050505050509190803590602001908201803590602001908080601f016020809104026020016040519081016040528093929190818152602001838380828437820191505050505050919050506100f3565b005b82600019167f90dacd067a5b8224512189e220fc1d0b480842d67b52fb95c828a9dac52316858383604051808060200180602001838103835285818151815260200191508051906020019080838360005b8381101561015f578082015181840152602081019050610144565b50505050905090810190601f16801561018c5780820380516001836020036101000a031916815260200191505b50838103825284818151815260200191508051906020019080838360005b838110156101c55780820151818401526020810190506101aa565b50505050905090810190601f1680156101f25780820380516001836020036101000a031916815260200191505b5094505050505060405180910390a25050505600a165627a7a7230582060d0c0b8ea701e460f7dd4ad12a3ecbb8cc012e7ec1388eca9c90b56a70ffb860029",
  "source": "pragma solidity ^0.4.17;\n\ncontract Tracer {\n\n\tevent MetaLogged(bytes32 indexed serial, string date, string temperature);\n\n  function TagMeta(bytes32 _serial, string _date, string _temp) public{\t\t\t\n\t\t\tMetaLogged(_serial, _date, _temp);\n  }\n}\n",
  "sourcePath": "D:\\JS\\trufflenodeTracer\\contracts\\Tracer.sol",
  "compiler": {
    "name": "solc",
    "version": "0.4.19+commit.c4cbbb05.Emscripten.clang"
  },
  "schemaVersion": "1.0.1",
  "updatedAt": "2018-02-26T22:43:42.043Z"
}